:020000040800F2
:100000007022002045010008B10B0008A90B000870
:10001000AD0B000881030008AD13000800000000CC
:10002000000000000000000000000000750D000846
:1000300085030008000000005D0C0008610E000848
:100040005F0100085F0100085F0100085F01000810
:100050005F0100085F0100085F0100085F01000800
:100060005F0100085F0100085F0100085F010008F0
:100070005F0100085F0100085F0100085F010008E0
:100080005F0100085F0100085F0100085F010008D0
:100090005F0100085F0100085F0100085F010008C0
:1000A0005F0100085F0100085F0100085F010008B0
:1000B0005F0100085F0100085F0100085F010008A0
:1000C0005F0100085F0100085F0100085F01000890
:1000D0005F0100085F010008950F00089D0F0008F0
:1000E0005F0100085F0100085F0100085F01000870
:1000F0005F0100085F0100085F0100085F01000860
:100100005F0100085F0100085F0100085F0100084F
:100110005F0100085F0100085F0100085F0100083F
:100120005F0100085F0100085F0100085F0100082F
:10013000DFF80CD000F0A8F800480047AD1A00081E
:10014000702200200648804706480047FEE7FEE789
:10015000FEE7FEE7FEE7FEE7FEE7FEE7FEE7FEE777
:100160000D0F00083101000840EA01039B0703D08E
:1001700009E008C9121F08C0042AFAD203E011F8E6
:10018000013B00F8013B521EF9D27047D2B201E0A8
:1001900000F8012B491EFBD270470022F6E710B58C
:1001A00013460A4604461946FFF7F0FF204610BDE5
:1001B00030B505462A460B4612F8010B13F8014BE1
:1001C00008B1A042F8D01CB1002802D06D1CF1E7A4
:1001D000284630BDCAB2401E10F8011F8A4202D024
:1001E0000029F9D100207047421C10F8011B00299A
:1001F000FBD1801A7047034611F8012B00F8012B40
:10020000002AF9D11846704730B50546002003464C
:1002100000E05B1C934205D2EC5CC85C201A01D163
:10022000002CF6D130BD2DE9F05F05460020924646
:100230009B4688460646814640241BE028464146A8
:100240004746224600F041F853465A46C01A9141AB
:1002500010D311461846224600F028F82D1A67EBF5
:1002600001084F4622460120002100F01FF817EB3D
:1002700000094E41201EA4F10104DFDC484631464E
:100280002A464346BDE8F09F064C074D06E0E0686D
:1002900040F0010394E8070098471034AC42F6D3CD
:1002A000FFF74AFF0C2100082C210008202A04DB5C
:1002B000203A00FA02F1002070479140C2F1200379
:1002C00020FA03F3194390407047202A04DB203AB8
:1002D00021FA02F00021704721FA02F3D040C2F166
:1002E00020029140084319467047000000B585B0D0
:1002F0000121480400F0B4FC0121042000F0C0FCFE
:100300000420ADF8100018208DF8130003208DF89C
:10031000120004A9184800F007FB0820ADF81000EF
:1003200004208DF8130004A9134800F0FDFA4FF4DF
:10033000164000900020ADF80400ADF80600ADF8BE
:100340000800ADF80C000C20ADF80A0069460B4817
:1003500000F034FF00F02DFC012240F22551074847
:1003600000F007FF0121054800F080FE402103480E
:1003700000F064FE05B000BD0008014000440040EC
:1003800000BFFEE77047000010B500244FF4007175
:100390000C4800F05FFB4FF47A7001F0DDFC0CE0DC
:1003A0004FF4FA73002208A108A000F011F800B180
:1003B00010BD00F0CFF9601CC4B20A2CF0DB00BF06
:1003C000F6E70000000C01404F4B000041540000D4
:1003D0002DE9F04106460C4615461F462548B0F863
:1003E00000046FF30E002349A1F80004324622A155
:1003F000234800F058FF1CB915B90120BDE8F08171
:10040000384601F0A9FC00201A49B1F80014C1F3E4
:100410000E01184A505411461AA000F0E7FFB4B17B
:10042000ADB121461348FFF7C3FE08B1012000E03B
:10043000002040B929460F48FFF7BAFE08B1012055
:1004400000E0002008B10120D8E70020D6E744B141
:1004500021460848FFF7ACFE08B10120CEE7002096
:10046000CCE729460348FFF7A3FE08B10120C5E702
:100470000020C3E7680E002025730D0A000000006D
:10048000004800402573000010B586B004460CB14A
:10049000012000E00020024606A101A800F0B6FFFE
:1004A0004FF4FA73002207A101A8FFF791FF06B0ED
:1004B00010BD000041542B4349504D55583D256413
:1004C000000000004F4B000008B50121082000F09B
:1004D000D7FB4FF48070ADF8000010208DF80300BA
:1004E00003208DF802006946074800F01DFA01213B
:1004F000082000F0C5FB4FF40070ADF8000069461D
:10050000014800F011FA08BD000C014010B5FFF7DA
:10051000DBFF00F081F94FF40071184800F09AFAFF
:100520004FF48071154800F093FA15A000F05EFFBB
:100530004FF48071114800F08DFAFFF725FF00207D
:1005400000F0CCF800BF15A117A000F047F8002874
:10055000F9D00020FFF798FF00BF052313A215A1D3
:10056000002000F05BF80028F7D000BF00F0B6F9DB
:100570000028FBD013A000F039FF10BD000C014093
:100580000D0AD5FDD4DAC5E4D6C320455350383220
:100590003636202E2E2E2E2E2E0D0A006A68313170
:1005A00032333538000000006A6A6A00383038306B
:1005B000000000003139322E3136382E382E3130DD
:1005C000310000000D0AC5E4D6C32045535038322F
:1005D000363620CDEAB1CF0D0A00000030B59FB00D
:1005E00004460D462B46224606A101A800F00EFF48
:1005F00041F28833002208A101A8FFF7E9FE1FB0ED
:1006000030BD000041542B43574A41503D222573D1
:10061000222C2225732200004F4B0000F0B5B9B008
:1006200006460F4614461D46642120A8FFF7B5FD77
:1006300016B1012E10D107E03B4614A214A120A848
:10064000009400F0E3FE08E03B4615A210A120A8AC
:10065000009400F0DBFE00E000BF00BF052D06DACD
:1006600020AB2A460FA102A800F0D0FE04E020AA89
:1006700011A102A800F0CAFE4FF47A6312A216A1DB
:1006800002A8FFF7A5FE39B0F0BD000054435000AA
:10069000222573222C222573222C257300000000B2
:1006A0005544500041542B43495053544152543DFA
:1006B00025642C257300000041542B4349505354AA
:1006C0004152543D25730000414C5245415920434D
:1006D0004F4E4E45435400004F4B000010B50446AA
:1006E00024B1012C0AD0022C18D10FE040F6C4131B
:1006F0000BA20EA10EA0FFF76BFE10BD40F6C413B7
:1007000007A20AA10DA0FFF763FEF6E740F6C413A7
:1007100003A206A10CA0FFF75BFEEEE70020ECE7CA
:100720006E6F206368616E67650000004F4B0000CC
:1007300041542B43574D4F44453D310041542B43C9
:10074000574D4F44453D320041542B43574D4F4484
:10075000453D330010B54FF40071064800F078F9BC
:100760004FF4FA7001F0F8FA4FF40071014800F00C
:1007700071F910BD000C01402DE9F04186B007462B
:100780000C4615461E464FF000083FB1224614A104
:10079000144800F088FD4FF001081CE0052E06DA31
:1007A000AB1C324610A101A800F030FE04E0AA1CE8
:1007B00012A101A800F02AFE4FF47A73002213A1BF
:1007C00001A8FFF705FE4FF47A73002210A120461E
:1007D000FFF7FEFD8046404606B0BDE8F081000010
:1007E000257300000048004041542B4349505345B5
:1007F0004E443D25642C25640000000041542B43E9
:10080000495053454E443D25640000003E20000001
:1008100053454E44204F4B0000B585B0012188045C
:1008200000F01EFA0121082000F02AFA4FF480603F
:10083000ADF8100018208DF8130003208DF8120079
:1008400004A91A4800F070F84FF40060ADF81000E9
:1008500004208DF8130004A9144800F065F84FF443
:10086000E13000900020ADF80400ADF80600ADF8CE
:100870000800ADF80C000C20ADF80A0069460C48E1
:1008800000F09CFC012240F22551094800F071FC67
:10089000012240F22441064800F06BFC00F00AF807
:1008A0000121034800F0E2FB05B000BD000C01404F
:1008B0000048004008B54FF4A06000F0C5F92720BB
:1008C0008DF8000000208DF801008DF80200012055
:1008D0008DF80300684600F07FF908BD10B54FF4AD
:1008E000FA73002207A108A0FFF772FD08B90020E3
:1008F00010BD4FF4FA7308A202A108A0FFF768FD2B
:10090000F6E700004F4B000041542B4349504D4F38
:1009100044453D31000000003E00000041542B439F
:10092000495053454E4400002DE9F0410246002550
:100930000026002000230024002791F803C00CF0BB
:100940000F0591F803C00CF0100CBCF1000F03D0A0
:1009500091F802C04CEA050591F800C0BCF1000F07
:1009600031D0146800202BE04FF0010C0CFA00F39A
:10097000B1F800C00CEA03069E4220D183004FF07C
:100980000F0C0CFA03F7BC4305FA03FC4CEA040411
:1009900091F803C0BCF1280F06D14FF0010C0CFAFE
:1009A00000FCC2F814C00AE091F803C0BCF1480F83
:1009B00005D14FF0010C0CFA00FCC2F810C0401C2D
:1009C0000828D1D31460B1F800C0BCF1FF0F34DDAA
:1009D000546800202EE000F1080C4FF0010808FADE
:1009E0000CF3B1F800C00CEA03069E4221D183004B
:1009F0004FF00F0C0CFA03F7BC4305FA03FC4CEA6A
:100A0000040491F803C0BCF1280F05D100F1080CD3
:100A100008FA0CF8C2F8148091F803C0BCF1480F32
:100A200007D100F1080C4FF0010808FA0CF8C2F8E1
:100A30001080401C0828CED35460BDE8F0810246E7
:100A4000002093680B400BB1012000E000207047AC
:100A5000416170470161704708B50121082000F02D
:100A60000FF94FF40050ADF8000004208DF803009A
:100A700003208DF8020069460848FFF755FF4FF440
:100A80008040ADF8000010208DF8030003208DF8A1
:100A9000020069460148FFF747FF08BD000C01400E
:100AA00010B5FFF7D9FFFFF721FC002416E004EB97
:100AB000C40101EB04120F4901EB42000EA100F04A
:100AC000A5FC04EBC40101EB04120A49FA3101EB65
:100AD000420009A100F09AFC601CC4B2052CE6DBC0
:100AE000002004492C390870012104A000F00AF804
:100AF00010BD0000740000202000000041540D0AC9
:100B0000000000002DE9F84305460C464FF00509AA
:100B10004FF0010833E04FF480412048FFF79AFF7F
:100B20000A2001F019F929461D4800F050FC002662
:100B300021E00A2001F010F9684600F0CBFE0746DC
:100B4000BDF80000002811DD387818B100BF00BFE3
:100B500000BF00BF13A13846FFF72AFB48B1012CA4
:100B600001D100F005FE0020BDE8F883642001F00B
:100B7000F3F8701CC6B2142EDBDB00BF00BF5FEAC7
:100B80000900A9F1010101F0FF09C4D100BF00BFB4
:100B9000012C01D100F0ECFD4046E5E7000C0140DE
:100BA000004400404F4B000000BFFEE700BFFEE7DF
:100BB000704708B54FF4E06000F046F826208DF845
:100BC000000001208DF801008DF802008DF803006F
:100BD000684600F001F808BD70B5002100230F221F
:100BE000C47804B3154C246804F4E064C4F5E064EC
:100BF000210AC1F10403CA40447804FA03F184785D
:100C00001440214309010E4C0678A155047804F0E4
:100C10001F050124AC4005786D11AD0005F1E025FC
:100C2000C5F8004109E0047804F01F050124AC4038
:100C3000044D0678761145F8264070BD0CED00E0B5
:100C400000E400E080E100E002490143024A116053
:100C5000704700000000FA050CED00E0704700004E
:100C600029B1064AD2690243044BDA6104E0034A1F
:100C7000D2698243014BDA617047000000100240E4
:100C800029B1064A92690243044B9A6104E0034A7F
:100C900092698243014B9A61704700000010024044
:100CA00030B500210022002400232D4D6D6805F091
:100CB0000C0121B1042905D0082923D105E0294DD3
:100CC000056022E0274D05601FE0254D6D6805F4A5
:100CD0007012234D6D6805F48034022505EB9242B5
:100CE0001CB9214D554305600BE01D4D6D6805F4A1
:100CF00000351DB11C4D5543056002E0194D5543AB
:100D0000056002E0174D056000BF00BF144D6D681F
:100D100005F0F0010909154D6B5C0568DD40456083
:100D20000F4D6D6805F4E061090A104D6B5C456874
:100D3000DD4085600A4D6D6805F46051C90A0B4DB0
:100D40006B5C4568DD40C560054D6D6805F440414C
:100D5000890B074D6B5CC568B5FBF3F5056130BDCC
:100D60000010024000127A0000093D00140000202B
:100D700024000020704710B500F002F810BD0000FC
:100D80000CB50020019000903348006840F480309A
:100D90003149086000BF3048006800F4003000901E
:100DA0000198401C0190009818B90198B0F5A06F07
:100DB000F1D12948006800F4003010B10120009002
:100DC00001E0002000900098012843D123480068EA
:100DD00040F01000214908600846006820F0030038
:100DE00008600846006840F0020008601A48406841
:100DF000194948600846406848600846406840F421
:100E0000806048600846406820F47C1048600846CE
:100E1000406840F4E81048600846006840F0807080
:100E2000086000BF0C48006800F000700028F9D08E
:100E30000948406820F003000749486008464068B8
:100E400040F00200486000BF0348406800F00C001A
:100E50000828F9D10CBD000000100240002002401B
:100E600010B500F08BF800F081F800240CE0084881
:100E700050F8240030B1064850F82400401E0449C0
:100E800041F82400601CC4B2032CF0DB10BD00004C
:100E90003C00002030B51A4800684FF47A72B0FB6D
:100EA000F2F1B1F1807F01D301201DE021F07F40FC
:100EB000401E4FF0E022506150170F22002807DA41
:100EC00013071D0E0F4B00F00F04241F1D5503E0E8
:100ED00013071C0E0C4B1C5400BF00204FF0E022E7
:100EE000906107201061002008B100BFFEE74FF0BD
:100EF000E020006920F001004FF0E021086130BDE2
:100F00000000002018ED00E000E400E010B51348F8
:100F1000006840F001001149086008464068104927
:100F200008400E494860084600680E4908400B49D1
:100F300008600846006820F4802008600846406881
:100F400020F4FE0048604FF41F008860FFF713FF95
:100F50004FF000600449086010BD0000001002401E
:100F60000000FFF8FFFFF6FE08ED00E00248006811
:100F7000401C0149086070473000002004480068A8
:100F800020B103480068401E014908607047000016
:100F90002C00002010B500F0C3FB10BD10B540F2CE
:100FA0002551204800F0BBF8D8B11E4800F072F976
:100FB000C4B21D48B0F80004C0F30E0040F2FF3187
:100FC00088420EDA1849B1F80014C1F30E00411C32
:100FD000154AB2F8002461F30E021349A1F8002467
:100FE0000C5440F224410F4800F099F8012817D121
:100FF0000D48B0F8000420F4004000F500400A4914
:10100000A1F80004074800F045F9C4B207A106485A
:10101000FFF7CEF808B1012000E000200649087073
:1010200010BD000000480040680E0020434C4F53A4
:1010300045440D0A000000003400002001F4007255
:10104000B2F5007F00D100BFCA430280704710B5DF
:101050000022002340F66A14A14200D100BF0A1208
:1010600001249440A3B2DC43048010BD21B18289E5
:1010700042F40052828104E082894DF6FF731A40E7
:101080008281704700B585B001210420FFF7F8FD8B
:1010900001218803FFF7F4FD4FF40070ADF8100054
:1010A00018208DF8130003208DF8120004A91348AE
:1010B000FFF73AFC4FF48060ADF8100004208DF883
:1010C000130004A90D48FFF72FFC4FF4E130009006
:1010D0000020ADF80400ADF80600ADF80800ADF84A
:1010E0000C000C20ADF80A006946054800F066F8CF
:1010F00001210348FFF7BAFF05B000BD0008014019
:101100000038014002460020B1F5007F00D100BF49
:1011100013880B400BB1012000E00020704770B530
:101120000246002400230025002040F66A16B14242
:1011300000D100BFC1F3421501F01F03012606FADA
:1011400003F3012D02D19689334006E0022D02D12E
:10115000168A334001E0968A33400C12012606FAC3
:1011600004F41688344013B10CB1012000E00020D3
:1011700070BDF0B50346002400260025002040F68F
:101180006A17B94200D100BF1846C1F3421401F0FA
:101190001F06012707FA06F5012C01D10C3004E0E7
:1011A000022C01D1103000E014301AB107682F432F
:1011B000076002E00768AF430760F0BD2DE9F04724
:1011C00086B005460E460024A24600BFA146002771
:1011D000B08900B100BF2F462C8A4CF6FF70044046
:1011E000F08804432C82AC894EF6F3100440B0889A
:1011F00031890843718908430443AC81AC8A4FF6B6
:10120000FF400440B0890443AC8201A8FFF748FDC9
:101210001F48874202D1DDF810A001E0DDF80CA0E4
:10122000A88900F4004040B10AEBCA0000EB0A10A4
:1012300031684900B0FBF1F807E00AEBCA0000EBA7
:101240000A1031688900B0FBF1F86420B8FBF0F0B7
:1012500004012009642101FB1089A88900F40040E1
:1012600040B1322000EBC900B0FBF1F000F0070004
:10127000044308E0322000EB09106421B0FBF1F0D8
:1012800000F00F0004432C8106B0BDE8F087000099
:101290000038014001468888C0F308007047C1F358
:1012A0000802828070470FB470B586B006460CA85D
:1012B000019073E00B9800785C281CD10B98401CBF
:1012C0000B9000786E2809D072280FD10D2130467E
:1012D000FFF7E5FF0B98401C0B900BE00A2130460E
:1012E000FFF7DDFF0B98401C0B9003E00B98401CB0
:1012F0000B9000BF4BE00B980078252840D10B984D
:10130000401C0B900078642818D0732833D10198C2
:1013100010C801900BE021783046FFF7C0FF00BFF6
:1013200080213046FFF7EEFE0028F9D0641C2078BB
:101330000028F0D10B98401C0B9020E0019820C8A9
:1013400001900A2202A9284600F0FDFA02AC0BE047
:1013500021783046FFF7A3FF00BF80213046FFF71A
:10136000D1FE0028F9D0641C20780028F0D10B9819
:10137000401C0B9003E00B98401C0B9000BF06E054
:101380000B9810F8011B0B903046FFF788FF00BF49
:1013900080213046FFF7B6FE0028F9D00B98007880
:1013A000002887D106B070BC5DF814FB00BFFEE7D3
:1013B00070B504460D4629462046FFF770FF00BF72
:1013C00080212046FFF79EFE0028F9D070BD70B541
:1013D00006460C46002500BF615D3046FFF7E8FF7A
:1013E0006D1C605D0028F7D170BD00000FB4054B87
:1013F00010B503A9044A029800F02CF810BC5DF85F
:1014000014FB000099170008380000200FB4084BA7
:1014100010B504A902AA039800F01CF8044602A91A
:10142000002000F077F9204610BC5DF814FB0000A6
:101430001517000802E008C8121F08C1002AFAD1D7
:1014400070477047002001E001C1121F002AFBD144
:10145000704700002DE9FF4F8DB09B460F460446B4
:10146000002606E025280BD05A460F999047641CA9
:10147000761C20780028F5D111B03046BDE8F08FF9
:101480000025A8460122984900E0054314F8013FD1
:10149000203B02FA03F00842F7D120782E2817D11A
:1014A00014F8010F45F004052A280ED06FF02F0222
:1014B0002078A0F1300109290AD808EB880102EB55
:1014C000410100EB0108641CF2E757F8048B641C2F
:1014D00020786C280DD004DC4C2812D06A2811D159
:1014E00004E074280DD07A280CD10AE045F40015E8
:1014F00007E0617845F48015814202D1641C05F54E
:101500008015641C2278692A45D008DC002AB3D0F3
:10151000582A69D0632A10D0642A08D13BE0702A87
:1015200067D0732A13D0752A5CD0782A5CD0104615
:101530005A460F999047761CD3E017F8040B8DF8A4
:10154000000000208DF80100E946012003E057F873
:10155000049B4FF0FF3069074FF0000501D40AE00B
:101560006D1C45450DDA8542FADB19F80510002996
:10157000F6D106E06D1C8542FCDB19F80510002948
:10158000F8D12E4404E019F8010B5A460F99904700
:101590006D1EF8D2A5E00A200021CDE90801C5F3AF
:1015A000025002280DD001CFC117031E71F10003B4
:1015B0000DDA4FF0000CD0EB0C006CEB01012D2389
:1015C00008E0FF1D27F00707F7E80201EDE72B050C
:1015D00004D52B238DF8283001233BE0EB0739D0CD
:1015E0002023F7E70A2000E010200021CDE90801C0
:1015F00007E01020002145F00405CDE908014FF077
:101600000808C5F3025002280FD001CF00214FF087
:10161000000A2B071FD5702A0DD0DDE908C38CF016
:10162000100C5CEA030C0CD015E0FF1D27F0070737
:10163000F7E80201EBE740228DF828204FF0010A7D
:101640000BE050EA010306D030238DF828308DF8E6
:10165000292002239A46582A04D024A20DF12009F9
:101660000B9209E026A2F9E7DDE90823FEF7DBFD8E
:101670000B9B9B5C09F8013D50EA0102F4D1ADEBF4
:10168000090020300890680701D44FF0010808993C
:10169000884502DDA8EB010000E00020804600251F
:1016A00006E00AA85A46405D0F9990476D1C761CCB
:1016B0005545F6DB04E030205A460F999047761CDA
:1016C000B8F10001A8F10108F5DC05E019F8010BFB
:1016D0005A460F999047761C0899481E0890002991
:1016E000F4DC641CC5E60000092801003031323307
:1016F000343536373839616263646566000000004E
:101700003031323334353637383941424344454637
:10171000000000000A68531C0B6010707047000046
:1017200010B510480088B0F5806F12DA40F22551EC
:101730000D48FFF7F4FC98B10B48FFF7ABFD0B49E0
:10174000084A1288885407480088401C05490880C8
:1017500006E040F225510448FFF779FC00F008F854
:1017600010BD00002A00002000440040680A00204C
:1017700040F201400021064A118005E00022411E8E
:1017800089B20846034B5A540028F7D1704700002D
:101790002A000020680A002070B504460D46E1B218
:1017A0000548FFF77CFD00BF80210348FFF7AAFC36
:1017B0000028F9D0204670BD003801402DE9F041E5
:1017C000A8B006462C21304600F02CFC00BF00BF1C
:1017D000002446E004EBC40000EB041106F12C00E9
:1017E00000EB410221A101A8FFF710FE002101A892
:1017F000FFF788F927A800F06DF80746387830B36E
:101800001EA13846FEF7D4FC08B3BDF89C2039462B
:101810001AA800F039F885B2322D03DD15B1002089
:101820001AA9485516A229461AA800F0DFFB8046DF
:10183000B8F1000F11D004EBC40101EB041206F55E
:10184000937101EB42004146FEF7D5FC05E0FFF73E
:101850008FFF012028B0BDE8F081FFF789FF601CF1
:10186000C4B23078A042B5DC0020F3E741542B52DB
:101870004E414D453F25730D0A0000004F4B0000BF
:101880002B524E414D453A00F0B503460C461546E5
:10189000002221460BE00F781046521C1F54491CB1
:1018A00008780A2802D008780D2800D103E00878CB
:1018B00008B1AA42EFDB00BF087838B108780A28DF
:1018C00004D008780D2801D00020F0BD00209854E5
:1018D0001046FAE701460248008808800148704730
:1018E0002A000020680A00200146002209B90020D1
:1018F000704722E00B78612B06DB0B78662B03DC4C
:101900000B78573BD8B214E00B78412B06DB0B78F1
:10191000462B03DC0B78373BD8B20AE00B78302B30
:1019200006DB0B78392B03DC0B78303BD8B200E0B8
:1019300006E000EB0212491C00BF08780028D9D14C
:1019400000BF1046D4E7F0B503460D461646002703
:1019500029460A2E03D0002008702846F0BD33B96E
:10196000302001F8010B002008702846F6E7002B14
:1019700003DA2D2001F8010B5B4242F210720DE0F8
:1019800093FBF2F404B937B104F1300001F8010B14
:1019900004FB123301270A2092FBF0F2002AEFDC4D
:1019A000002008702846D9E710B59AB000242448D2
:1019B00000F0DCF92248FFF701FF214800F0B0FAFF
:1019C00000BF36E004EBC40101EB04121D4901EB3A
:1019D00042001DA1FEF7ECFB002828D01CA0FFF759
:1019E00005FD2C21164800F01DFB04EBC40000EBA4
:1019F000041113482C3000EB410224A101A8FFF789
:101A000005FD002101A8FFF77DF804EBC40000EB01
:101A100004110B482C3000EB410220A101A8FFF774
:101A2000F5FC002101A8FFF76DF81AB010BD601C8D
:101A3000C4B203480078A042C4DA0120F5E70000F0
:101A4000480000206E01002048432D303500000082
:101A50003C3C2D484330352D494E464F2D3E3E20CF
:101A6000CBD1CBF7B5BDD4B6B3CC48432D3035C4BC
:101A7000A3BFE9A3ACBCB4BDABBDF8D0D0C5E4B640
:101A8000D4C1ACBDD32E2E2E0A00000041542B50E1
:101A90004149523D25732C32300D0A0041542B4CE4
:101AA000494E4B3D25730D0A00000000A6B064218D
:101AB0000DA8FEF772FB504A07CA09AB07C32022E4
:101AC0004D490C3101A8FEF74FFBFFF7E3F94FF04A
:101AD000E020006940F001004FF0E0210861FFF7CD
:101AE000D1FAFEF713FD45A0FFF780FCFEF7D8FF03
:101AF00018B94FA0FFF77AFC04E05648FFF776FCD0
:101B000000BFFEE7012154A0FEF7FCFF4FF4487030
:101B100000F022F9012153A0FEF7F4FFC82000F0E5
:101B20001BF9012152A0FEF7EDFF012154A0FEF7A1
:101B3000E9FF012155A0FEF7E5FF012156A0FEF7C0
:101B4000E1FF012157A0FEF7DDFF012158A0FEF7BC
:101B5000D9FF012159A0FEF7D5FF01215AA0FEF7B8
:101B6000D1FF01215CA0FEF7CDFF01A95FA0FFF727
:101B70003DFC40E06A48806890B94FF400516948E4
:101B8000FEF75DFF60B968480078012808D167A0BA
:101B9000FFF72CFCFFF708FF40F6B830604988607B
:101BA0005F48006838BB4FF400515E48FEF747FFBE
:101BB00008B30CA8FFF78EFE0546BDF83020294675
:101BC0006448FFF761FE84B2C82C0FDA74B129466D
:101BD0000DA8FFF71BFC052300220DA90120FEF72D
:101BE000CBFD642000F0B8F8FFF7C2FD4FF4FA70A7
:101BF0004B49086000BFBDE7842000083C3C2D48ED
:101C00004330352D494E464F2D3E3E202A2A2A2A62
:101C10002A2A2A2A2A2A48433035C4A3BFE9CAB54A
:101C2000D1E92A2A2A2A2A2A2A2A2A2A2A2A0A00F8
:101C30003C3C2D484330352D494E464F2D3E3E20ED
:101C400048433035C4A3BFE9BCECB2E2D5FDB3A331
:101C5000A1A30A00B020000841542B52455345541B
:101C60000D0A000041542B4F52474C0D0A00000052
:101C700041542B56455253494F4E3F0D0A00000028
:101C800041542B414444523F0D0A000041542B550E
:101C90004152543F0D0A000041542B434D4F4445DF
:101CA0003F0D0A0041542B53544154453F0D0A0047
:101CB00041542B524F4C453D310D0A0041542B49A4
:101CC0004E49540D0A00000041542B434C415353DC
:101CD0003D300D0A0000000041542B494E514D3D4E
:101CE000312C392C34380D0A000000003C3C2D48C2
:101CF0004330352D494E464F2D3E3E20B1BEC4A344
:101D0000BFE9C3FBD7D6CEAA3A2573202CC4A3BF04
:101D1000E9D2D1D7BCB1B8BECDD0F7A1A30A00009B
:101D20003C000020000C0140280000203C3C2D48D5
:101D30004330352D494E464F2D3E3E20D5FDD4DA59
:101D4000C9A8C3E8C0B6D1C0C9E8B1B82E2E2E0AC2
:101D500000000000680600200349086000BF024937
:101D600009680029FBD170472C0000202DE9F04FB5
:101D70008FB004464FF00009CA4600215DA0FEF76F
:101D8000C1FE0EA8FFF7A6FD804698F800000028C7
:101D900073D05BA14046FEF70BFA0028F8D000BFD5
:101DA00000BF00BF8EE008EB0900022202FB0A011F
:101DB000BDF8382001A8FFF767FD87B2322F08DD94
:101DC0003FB1012150A0FEF79DFE01200FB0BDE8FC
:101DD000F08F09EB07001FFA80F90AF1010000F00B
:101DE000FF0A47A2394601A800F000F90646002E76
:101DF00068D025783A21204600F014F94FF0000B06
:101E000010E00BEBCB0000EB0B1204F12C0000EB0D
:101E1000420101A8FEF7CCF900B1C3E70BF10100C4
:101E200000F0FF0BAB45ECDD3046FFF75DFD81B206
:101E3000201D20F835103A213046FEF7CBF9064632
:101E40002EB9012130A0FEF75DFE0120BEE7711C16
:101E50000E460846FFF748FDC1B2201D00EBC50045
:101E600081703A213046FEF7B5F9064636B90121B0
:101E700025A0FEF747FE0120A8E733E0711C0E46BF
:101E80000846FFF731FD211D01EBC5014860201D0B
:101E900000EBC5004068211D01EBC50100908B7867
:101EA000211D31F8352005EBC50101EB051C04F1BE
:101EB0002C0101EB4C0017A1FFF7A8FA2078401C79
:101EC000207000BFBDF83800022101FB1A00484510
:101ED0003FF769AFFFF74CFC01210BA0FEF712FEA4
:101EE000002073E7FFF744FC012107A0FEF70AFE7C
:101EF00001206BE741542B494E510D0A00000000B0
:101F00002B494E513A00000041542B494E51430D8C
:101F10000A00000025583A25583A255800000000CC
:101F200070B50546287808B900BF22E000BF00BFA1
:101F300000241BE021460FA0FFF758FA04EBC40071
:101F400000EB041205F12C0000EB420115A0FFF795
:101F50004DFA04EBC40000EB041205F5937000EB9E
:101F6000420119A0FFF742FA601CC4B22878A042CF
:101F7000E0DC70BD3C3C2D484330352D494E464F8A
:101F80002D3E3E202F2A2A2A2A2A2A2A44657669AB
:101F900063655B25645D2A2A2A2A2A2A2A2A2F0AAF
:101FA000000000003C3C2D484330352D494E464F43
:101FB0002D3E3E2044657669636520416464723A33
:101FC0002025730A000000003C3C2D484330352D8D
:101FD000494E464F2D3E3E20446576696365206E2E
:101FE000616D653A2025730A000000002DE9F0417B
:101FF00005460E4614462046FEF7F6F887B20DB1A8
:1020000006B114B90020BDE8F081BE4207D33A46BC
:1020100021462846FEF7F8F808B9E819F3E700204A
:10202000F1E70000FEB504460E46207808B900BF6F
:1020300020E000251BE0201D00EBC5004068211DAD
:1020400001EBC5018978CDE900160290211D31F818
:10205000352005EBC50101EB051304F12C0101EB63
:102060004300334604A1FFF7D1F9681CC5B22078BC
:10207000A842E0DCFEBD00002558256325582563F5
:1020800025580000534C4156450000000000000058
:10209000484330355F534C41564500000000000076
:1020A0000000000000000000000000000000000030
:1020B0003C3C2D484330352D4552524F522D3E3E2B
:1020C0002048433035C4A3BFE9BCECB2E2B2BBD573
:1020D000FDB3A3A3ACC7EBBCECB2E9C4A3BFE9D387
:1020E000EBBFAAB7A2B0E5B5C4C1ACBDD3A3ACC821
:1020F000BBBAF3B8B4CEBBBFAAB7A2B0E5D6D8D0AE
:10210000C2B2E2CAD4A1A30A000000002C21000838
:10211000000000203C000000341400086821000882
:102120003C000020342200004414000800A24A04AD
:102130000000000000000000010203040607080977
:10214000000000000102030401020304060708095D
:10215000020406080100000000000000000000006A
:08216000000000000000000077
:0400000508000145A9
:00000001FF
